{
  "contractName": "AuctionStore",
  "abi": [
    {
      "constant": true,
      "inputs": [],
      "name": "productIndex",
      "outputs": [
        {
          "name": "",
          "type": "uint256"
        }
      ],
      "payable": false,
      "stateMutability": "view",
      "type": "function"
    },
    {
      "inputs": [],
      "payable": false,
      "stateMutability": "nonpayable",
      "type": "constructor"
    },
    {
      "constant": false,
      "inputs": [
        {
          "name": "_name",
          "type": "string"
        },
        {
          "name": "_category",
          "type": "string"
        },
        {
          "name": "_imageLink",
          "type": "string"
        },
        {
          "name": "_descLink",
          "type": "string"
        },
        {
          "name": "_auctionStartTime",
          "type": "uint256"
        },
        {
          "name": "_auctionEndTime",
          "type": "uint256"
        },
        {
          "name": "_startPrice",
          "type": "uint256"
        },
        {
          "name": "_productCondition",
          "type": "uint256"
        }
      ],
      "name": "addProductToStore",
      "outputs": [],
      "payable": false,
      "stateMutability": "nonpayable",
      "type": "function"
    },
    {
      "constant": true,
      "inputs": [
        {
          "name": "_productId",
          "type": "uint256"
        }
      ],
      "name": "getProduct",
      "outputs": [
        {
          "name": "",
          "type": "uint256"
        },
        {
          "name": "",
          "type": "string"
        },
        {
          "name": "",
          "type": "string"
        },
        {
          "name": "",
          "type": "string"
        },
        {
          "name": "",
          "type": "string"
        },
        {
          "name": "",
          "type": "uint256"
        },
        {
          "name": "",
          "type": "uint256"
        },
        {
          "name": "",
          "type": "uint256"
        },
        {
          "name": "",
          "type": "uint8"
        },
        {
          "name": "",
          "type": "uint8"
        }
      ],
      "payable": false,
      "stateMutability": "view",
      "type": "function"
    },
    {
      "constant": false,
      "inputs": [
        {
          "name": "_productId",
          "type": "uint256"
        },
        {
          "name": "_bid",
          "type": "bytes32"
        }
      ],
      "name": "bid",
      "outputs": [
        {
          "name": "",
          "type": "bool"
        }
      ],
      "payable": true,
      "stateMutability": "payable",
      "type": "function"
    },
    {
      "constant": false,
      "inputs": [
        {
          "name": "_productId",
          "type": "uint256"
        },
        {
          "name": "_amount",
          "type": "string"
        },
        {
          "name": "_secret",
          "type": "string"
        }
      ],
      "name": "revealBid",
      "outputs": [],
      "payable": false,
      "stateMutability": "nonpayable",
      "type": "function"
    },
    {
      "constant": true,
      "inputs": [
        {
          "name": "_productId",
          "type": "uint256"
        }
      ],
      "name": "highestBidderInfo",
      "outputs": [
        {
          "name": "",
          "type": "address"
        },
        {
          "name": "",
          "type": "uint256"
        },
        {
          "name": "",
          "type": "uint256"
        }
      ],
      "payable": false,
      "stateMutability": "view",
      "type": "function"
    },
    {
      "constant": true,
      "inputs": [
        {
          "name": "_productId",
          "type": "uint256"
        }
      ],
      "name": "totalBids",
      "outputs": [
        {
          "name": "",
          "type": "uint256"
        }
      ],
      "payable": false,
      "stateMutability": "view",
      "type": "function"
    }
  ],
  "bytecode": "0x608060405234801561001057600080fd5b50600080819055506124ba806100276000396000f300608060405260043610610083576000357c0100000000000000000000000000000000000000000000000000000000900463ffffffff16806328e3d19014610088578063a508b955146100c9578063b9db15b41461022c578063c897d5a61461045c578063ce818ea914610487578063ea1591bb14610502578063f85f196e14610548575b600080fd5b34801561009457600080fd5b506100b360048036038101908080359060200190929190505050610601565b6040518082815260200191505060405180910390f35b3480156100d557600080fd5b5061022a600480360381019080803590602001908201803590602001908080601f0160208091040260200160405190810160405280939291908181526020018383808284378201915050505050509192919290803590602001908201803590602001908080601f0160208091040260200160405190810160405280939291908181526020018383808284378201915050505050509192919290803590602001908201803590602001908080601f0160208091040260200160405190810160405280939291908181526020018383808284378201915050505050509192919290803590602001908201803590602001908080601f016020809104026020016040519081016040528093929190818152602001838380828437820191505050505050919291929080359060200190929190803590602001909291908035906020019092919080359060200190929190505050610a29565b005b34801561023857600080fd5b5061025760048036038101908080359060200190929190505050610d89565b604051808b8152602001806020018060200180602001806020018a815260200189815260200188815260200187600281111561028f57fe5b60ff1681526020018660018111156102a357fe5b60ff16815260200185810385528e818151815260200191508051906020019080838360005b838110156102e35780820151818401526020810190506102c8565b50505050905090810190601f1680156103105780820380516001836020036101000a031916815260200191505b5085810384528d818151815260200191508051906020019080838360005b8381101561034957808201518184015260208101905061032e565b50505050905090810190601f1680156103765780820380516001836020036101000a031916815260200191505b5085810383528c818151815260200191508051906020019080838360005b838110156103af578082015181840152602081019050610394565b50505050905090810190601f1680156103dc5780820380516001836020036101000a031916815260200191505b5085810382528b818151815260200191508051906020019080838360005b838110156104155780820151818401526020810190506103fa565b50505050905090810190601f1680156104425780820380516001836020036101000a031916815260200191505b509e50505050505050505050505050505060405180910390f35b34801561046857600080fd5b50610471611213565b6040518082815260200191505060405180910390f35b34801561049357600080fd5b506104b260048036038101908080359060200190929190505050611219565b604051808473ffffffffffffffffffffffffffffffffffffffff1673ffffffffffffffffffffffffffffffffffffffff168152602001838152602001828152602001935050505060405180910390f35b61052e600480360381019080803590602001909291908035600019169060200190929190505050611656565b604051808215151515815260200191505060405180910390f35b34801561055457600080fd5b506105ff60048036038101908080359060200190929190803590602001908201803590602001908080601f0160208091040260200160405190810160405280939291908181526020018383808284378201915050505050509192919290803590602001908201803590602001908080601f0160208091040260200160405190810160405280939291908181526020018383808284378201915050505050509192919290505050611a71565b005b600061060b61230c565b600260006001600086815260200190815260200160002060009054906101000a900473ffffffffffffffffffffffffffffffffffffffff1673ffffffffffffffffffffffffffffffffffffffff1673ffffffffffffffffffffffffffffffffffffffff16815260200190815260200160002060008481526020019081526020016000206101c0604051908101604052908160008201548152602001600182018054600181600116156101000203166002900480601f01602080910402602001604051908101604052809291908181526020018280546001816001161561010002031660029004801561073e5780601f106107135761010080835404028352916020019161073e565b820191906000526020600020905b81548152906001019060200180831161072157829003601f168201915b50505050508152602001600282018054600181600116156101000203166002900480601f0160208091040260200160405190810160405280929190818152602001828054600181600116156101000203166002900480156107e05780601f106107b5576101008083540402835291602001916107e0565b820191906000526020600020905b8154815290600101906020018083116107c357829003601f168201915b50505050508152602001600382018054600181600116156101000203166002900480601f0160208091040260200160405190810160405280929190818152602001828054600181600116156101000203166002900480156108825780601f1061085757610100808354040283529160200191610882565b820191906000526020600020905b81548152906001019060200180831161086557829003601f168201915b50505050508152602001600482018054600181600116156101000203166002900480601f0160208091040260200160405190810160405280929190818152602001828054600181600116156101000203166002900480156109245780601f106108f957610100808354040283529160200191610924565b820191906000526020600020905b81548152906001019060200180831161090757829003601f168201915b505050505081526020016005820154815260200160068201548152602001600782015481526020016008820160009054906101000a900473ffffffffffffffffffffffffffffffffffffffff1673ffffffffffffffffffffffffffffffffffffffff1673ffffffffffffffffffffffffffffffffffffffff16815260200160098201548152602001600a8201548152602001600b8201548152602001600c820160009054906101000a900460ff1660028111156109dd57fe5b60028111156109e857fe5b8152602001600c820160019054906101000a900460ff166001811115610a0a57fe5b6001811115610a1557fe5b815250509050806101600151915050919050565b610a3161230c565b8385101515610ace576040517f08c379a00000000000000000000000000000000000000000000000000000000081526004018080602001828103825260248152602001807fe5bc80e5a78be697b6e997b4e4b88de883bde6999ae4ba8ee7bb93e69d9fe69781526020017fb6e997b40000000000000000000000000000000000000000000000000000000081525060400191505060405180910390fd5b600160008082825401925050819055506101c06040519081016040528060005481526020018a8152602001898152602001888152602001878152602001868152602001858152602001848152602001600073ffffffffffffffffffffffffffffffffffffffff16815260200160008152602001600081526020016000815260200160006002811115610b5c57fe5b8152602001836001811115610b6d57fe5b6001811115610b7857fe5b815250905080600260003373ffffffffffffffffffffffffffffffffffffffff1673ffffffffffffffffffffffffffffffffffffffff168152602001908152602001600020600080548152602001908152602001600020600082015181600001556020820151816001019080519060200190610bf59291906123a8565b506040820151816002019080519060200190610c129291906123a8565b506060820151816003019080519060200190610c2f9291906123a8565b506080820151816004019080519060200190610c4c9291906123a8565b5060a0820151816005015560c0820151816006015560e082015181600701556101008201518160080160006101000a81548173ffffffffffffffffffffffffffffffffffffffff021916908373ffffffffffffffffffffffffffffffffffffffff160217905550610120820151816009015561014082015181600a015561016082015181600b015561018082015181600c0160006101000a81548160ff02191690836002811115610cf957fe5b02179055506101a082015181600c0160016101000a81548160ff02191690836001811115610d2357fe5b021790555090505033600160008054815260200190815260200160002060006101000a81548173ffffffffffffffffffffffffffffffffffffffff021916908373ffffffffffffffffffffffffffffffffffffffff160217905550505050505050505050565b60006060806060806000806000806000610da161230c565b60026000600160008f815260200190815260200160002060009054906101000a900473ffffffffffffffffffffffffffffffffffffffff1673ffffffffffffffffffffffffffffffffffffffff1673ffffffffffffffffffffffffffffffffffffffff16815260200190815260200160002060008d81526020019081526020016000206101c0604051908101604052908160008201548152602001600182018054600181600116156101000203166002900480601f016020809104026020016040519081016040528092919081815260200182805460018160011615610100020316600290048015610ed45780601f10610ea957610100808354040283529160200191610ed4565b820191906000526020600020905b815481529060010190602001808311610eb757829003601f168201915b50505050508152602001600282018054600181600116156101000203166002900480601f016020809104026020016040519081016040528092919081815260200182805460018160011615610100020316600290048015610f765780601f10610f4b57610100808354040283529160200191610f76565b820191906000526020600020905b815481529060010190602001808311610f5957829003601f168201915b50505050508152602001600382018054600181600116156101000203166002900480601f0160208091040260200160405190810160405280929190818152602001828054600181600116156101000203166002900480156110185780601f10610fed57610100808354040283529160200191611018565b820191906000526020600020905b815481529060010190602001808311610ffb57829003601f168201915b50505050508152602001600482018054600181600116156101000203166002900480601f0160208091040260200160405190810160405280929190818152602001828054600181600116156101000203166002900480156110ba5780601f1061108f576101008083540402835291602001916110ba565b820191906000526020600020905b81548152906001019060200180831161109d57829003601f168201915b505050505081526020016005820154815260200160068201548152602001600782015481526020016008820160009054906101000a900473ffffffffffffffffffffffffffffffffffffffff1673ffffffffffffffffffffffffffffffffffffffff1673ffffffffffffffffffffffffffffffffffffffff16815260200160098201548152602001600a8201548152602001600b8201548152602001600c820160009054906101000a900460ff16600281111561117357fe5b600281111561117e57fe5b8152602001600c820160019054906101000a900460ff1660018111156111a057fe5b60018111156111ab57fe5b815250509050806000015181602001518260400151836060015184608001518560a001518660c001518760e00151886101800151896101a001518898508797508696508595509a509a509a509a509a509a509a509a509a509a50509193959799509193959799565b60005481565b600080600061122661230c565b600260006001600088815260200190815260200160002060009054906101000a900473ffffffffffffffffffffffffffffffffffffffff1673ffffffffffffffffffffffffffffffffffffffff1673ffffffffffffffffffffffffffffffffffffffff16815260200190815260200160002060008681526020019081526020016000206101c0604051908101604052908160008201548152602001600182018054600181600116156101000203166002900480601f0160208091040260200160405190810160405280929190818152602001828054600181600116156101000203166002900480156113595780601f1061132e57610100808354040283529160200191611359565b820191906000526020600020905b81548152906001019060200180831161133c57829003601f168201915b50505050508152602001600282018054600181600116156101000203166002900480601f0160208091040260200160405190810160405280929190818152602001828054600181600116156101000203166002900480156113fb5780601f106113d0576101008083540402835291602001916113fb565b820191906000526020600020905b8154815290600101906020018083116113de57829003601f168201915b50505050508152602001600382018054600181600116156101000203166002900480601f01602080910402602001604051908101604052809291908181526020018280546001816001161561010002031660029004801561149d5780601f106114725761010080835404028352916020019161149d565b820191906000526020600020905b81548152906001019060200180831161148057829003601f168201915b50505050508152602001600482018054600181600116156101000203166002900480601f01602080910402602001604051908101604052809291908181526020018280546001816001161561010002031660029004801561153f5780601f106115145761010080835404028352916020019161153f565b820191906000526020600020905b81548152906001019060200180831161152257829003601f168201915b505050505081526020016005820154815260200160068201548152602001600782015481526020016008820160009054906101000a900473ffffffffffffffffffffffffffffffffffffffff1673ffffffffffffffffffffffffffffffffffffffff1673ffffffffffffffffffffffffffffffffffffffff16815260200160098201548152602001600a8201548152602001600b8201548152602001600c820160009054906101000a900460ff1660028111156115f857fe5b600281111561160357fe5b8152602001600c820160019054906101000a900460ff16600181111561162557fe5b600181111561163057fe5b815250509050806101000151816101200151826101400151935093509350509193909250565b600080600260006001600087815260200190815260200160002060009054906101000a900473ffffffffffffffffffffffffffffffffffffffff1673ffffffffffffffffffffffffffffffffffffffff1673ffffffffffffffffffffffffffffffffffffffff1681526020019081526020016000206000858152602001908152602001600020905080600501544210151515611780576040517f08c379a00000000000000000000000000000000000000000000000000000000081526004018080602001828103825260368152602001807fe59586e59381e7ab9ee68b8de697b6e997b4e69caae588b0efbc8ce69a82e69c81526020017faae5bc80e5a78befbc8ce8afb7e7ad89e5be852e2e2e0000000000000000000081525060400191505060405180910390fd5b806006015442111515156117fc576040517f08c379a00000000000000000000000000000000000000000000000000000000081526004018080602001828103825260188152602001807fe59586e59381e7ab9ee68b8de5b7b2e7bb8fe7bb93e69d9f000000000000000081525060200191505060405180910390fd5b8060070154341015151561189e576040517f08c379a000000000000000000000000000000000000000000000000000000000815260040180806020018281038252602d8152602001807fe8aebee7bdaee79a84e8999ae68b9fe4bbb7e6a0bce4b88de883bde4bd8ee4ba81526020017f8ee5bc80e6a087e4bbb7e6a0bc0000000000000000000000000000000000000081525060400191505060405180910390fd5b600081600d0160003373ffffffffffffffffffffffffffffffffffffffff1673ffffffffffffffffffffffffffffffffffffffff1681526020019081526020016000206000856000191660001916815260200190815260200160002060000160009054906101000a900473ffffffffffffffffffffffffffffffffffffffff1673ffffffffffffffffffffffffffffffffffffffff1614151561194057600080fd5b6080604051908101604052803373ffffffffffffffffffffffffffffffffffffffff1681526020018581526020013481526020016000151581525081600d0160003373ffffffffffffffffffffffffffffffffffffffff1673ffffffffffffffffffffffffffffffffffffffff1681526020019081526020016000206000856000191660001916815260200190815260200160002060008201518160000160006101000a81548173ffffffffffffffffffffffffffffffffffffffff021916908373ffffffffffffffffffffffffffffffffffffffff160217905550602082015181600101556040820151816002015560608201518160030160006101000a81548160ff021916908315150217905550905050600181600b0160008282540192505081905550600191505092915050565b600080611a7c612428565b60008060026000600160008b815260200190815260200160002060009054906101000a900473ffffffffffffffffffffffffffffffffffffffff1673ffffffffffffffffffffffffffffffffffffffff1673ffffffffffffffffffffffffffffffffffffffff16815260200190815260200160002060008981526020019081526020016000209450846006015442111515611ba5576040517f08c379a000000000000000000000000000000000000000000000000000000000815260040180806020018281038252602d8152602001807fe7ab9ee6a087e5b09ae69caae7bb93e69d9fefbc8ce69caae588b0e585ace59181526020017f8ae4bbb7e6a0bce697b6e997b40000000000000000000000000000000000000081525060400191505060405180910390fd5b86866040518083805190602001908083835b602083101515611bdc5780518252602082019150602081019050602083039250611bb7565b6001836020036101000a03801982511681845116808217855250505050505090500182805190602001908083835b602083101515611c2f5780518252602082019150602081019050602083039250611c0a565b6001836020036101000a038019825116818451168082178552505050505050905001925050506040518091039020935084600d0160003373ffffffffffffffffffffffffffffffffffffffff1673ffffffffffffffffffffffffffffffffffffffff16815260200190815260200160002060008560001916600019168152602001908152602001600020608060405190810160405290816000820160009054906101000a900473ffffffffffffffffffffffffffffffffffffffff1673ffffffffffffffffffffffffffffffffffffffff1673ffffffffffffffffffffffffffffffffffffffff16815260200160018201548152602001600282015481526020016003820160009054906101000a900460ff16151515158152505092506000836000015173ffffffffffffffffffffffffffffffffffffffff16111515611dde576040517f08c379a00000000000000000000000000000000000000000000000000000000081526004018080602001828103825260158152602001807fe992b1e58c85e59cb0e59d80e4b88de5ad98e59ca8000000000000000000000081525060200191505060405180910390fd5b6000151583606001511515141515611e5e576040517f08c379a000000000000000000000000000000000000000000000000000000000815260040180806020018281038252600c8152602001807fe5b7b2e7bb8fe68fade6a087000000000000000000000000000000000000000081525060200191505060405180910390fd5b611e6787612102565b90508083604001511015611e8157826040015191506120f8565b60008560080160009054906101000a900473ffffffffffffffffffffffffffffffffffffffff1673ffffffffffffffffffffffffffffffffffffffff161415611f2b57338560080160006101000a81548173ffffffffffffffffffffffffffffffffffffffff021916908373ffffffffffffffffffffffffffffffffffffffff160217905550808560090181905550846007015485600a0181905550808360400151039150612030565b846009015481111561200d57846009015485600a01819055508460080160009054906101000a900473ffffffffffffffffffffffffffffffffffffffff1673ffffffffffffffffffffffffffffffffffffffff166108fc86600901549081150290604051600060405180830381858888f19350505050158015611fb2573d6000803e3d6000fd5b50338560080160006101000a81548173ffffffffffffffffffffffffffffffffffffffff021916908373ffffffffffffffffffffffffffffffffffffffff16021790555080856009018190555080836040015103915061202f565b84600a015481111561202a578085600a018190555080915061202e565b8091505b5b5b60008211156120f7573373ffffffffffffffffffffffffffffffffffffffff166108fc839081150290604051600060405180830381858888f1935050505015801561207f573d6000803e3d6000fd5b50600185600d0160003373ffffffffffffffffffffffffffffffffffffffff1673ffffffffffffffffffffffffffffffffffffffff1681526020019081526020016000206000866000191660001916815260200190815260200160002060030160006101000a81548160ff0219169083151502179055505b5b5050505050505050565b6000606060008084925060009150600090505b82518110156123015760307f010000000000000000000000000000000000000000000000000000000000000002838281518110151561215057fe5b9060200101517f010000000000000000000000000000000000000000000000000000000000000090047f0100000000000000000000000000000000000000000000000000000000000000027effffffffffffffffffffffffffffffffffffffffffffffffffffffffffffff191610158015612268575060397f01000000000000000000000000000000000000000000000000000000000000000283828151811015156121f857fe5b9060200101517f010000000000000000000000000000000000000000000000000000000000000090047f0100000000000000000000000000000000000000000000000000000000000000027effffffffffffffffffffffffffffffffffffffffffffffffffffffffffffff191611155b156122f4576030838281518110151561227d57fe5b9060200101517f010000000000000000000000000000000000000000000000000000000000000090047f0100000000000000000000000000000000000000000000000000000000000000027f0100000000000000000000000000000000000000000000000000000000000000900403600a83020191505b8080600101915050612115565b819350505050919050565b6101c0604051908101604052806000815260200160608152602001606081526020016060815260200160608152602001600081526020016000815260200160008152602001600073ffffffffffffffffffffffffffffffffffffffff1681526020016000815260200160008152602001600081526020016000600281111561239057fe5b8152602001600060018111156123a257fe5b81525090565b828054600181600116156101000203166002900490600052602060002090601f016020900481019282601f106123e957805160ff1916838001178555612417565b82800160010185558215612417579182015b828111156124165782518255916020019190600101906123fb565b5b5090506124249190612469565b5090565b608060405190810160405280600073ffffffffffffffffffffffffffffffffffffffff16815260200160008152602001600081526020016000151581525090565b61248b91905b8082111561248757600081600090555060010161246f565b5090565b905600a165627a7a72305820f16d828da54345552f37eb2f8a25c81ec592aa5fcb478bf36331a6eddd33923d0029",
  "source": "pragma solidity ^0.4.24;\n//AuctionStore\ncontract AuctionStore {\n    //ProductStatus\n    enum ProductStatus {\n        Open, //\n        Sold, //,\n        Unsold //\n    }\n    enum ProductCondition {\n        New, //\n        Used //\n    }\n    // ID\n    uint public productIndex; \n    //Id\n    mapping(uint => address) productIdInStore;\n    // \n    mapping(address => mapping(uint => Product)) stores;\n    \n    //\n    struct Bid {\n        address bidder;\n        uint productId;\n        uint value;\n        bool revealed; //\n    }\n\n    \n    //\n    struct Product {\n        uint id;                 //id\n        string name;             //\n        string category ;       //\n        string imageLink ;       //Hash\n        string descLink;        // Hash\n        uint auctionStartTime; //\n        uint auctionEndTime;    //\n        uint startPrice;       //   \n        address highestBidder ; //\n        uint highestBid ;       //\n        uint secondHighestBid ; //\n        uint totalBids ;        //\n        ProductStatus status;    //\n        ProductCondition condition ;  //\n        mapping(address => mapping(bytes32 => Bid)) bids;// \n\n    }\n    constructor ()public{\n        productIndex = 0;\n    }\n    //\n    function addProductToStore(string _name, string _category, string _imageLink, string _descLink, uint _auctionStartTime, uint _auctionEndTime ,uint _startPrice, uint  _productCondition) public  {\n        //\n        require(_auctionStartTime < _auctionEndTime,\"\");\n        //ID\n        productIndex += 1;\n        //product\n        Product memory product = Product(productIndex,_name,_category,_imageLink,_descLink,_auctionStartTime,_auctionEndTime,_startPrice,0,0,0,0,ProductStatus.Open,ProductCondition(_productCondition));\n        stores[msg.sender][productIndex] = product;\n        productIdInStore[productIndex] = msg.sender;   \n    }\n    //ID\n    function getProduct(uint _productId)  public view returns (uint,string, string,string,string,uint ,uint,uint, ProductStatus, ProductCondition)  {\n        Product memory product = stores[productIdInStore[_productId]][_productId];\n        return (product.id, product.name,product.category,product.imageLink,product.descLink,product.auctionStartTime,product.auctionEndTime,product.startPrice,product.status,product.condition);\n    }\n    //,IdHash(Hash),Payable\n    function bid(uint _productId, bytes32 _bid) payable public returns (bool) {\n        Product storage product = stores[productIdInStore[_productId]][_productId];\n        require(now >= product.auctionStartTime, \"...\");\n        require(now <= product.auctionEndTime,\"\");\n        require(msg.value >= product.startPrice,\"\");\n        require(product.bids[msg.sender][_bid].bidder == 0); //bid\n        //\n        product.bids[msg.sender][_bid] = Bid(msg.sender, _productId, msg.value,false);\n        //\n        product.totalBids += 1;\n        //\n        return true;\n    }\n\n    //\n    function revealBid(uint _productId, string _amount, string _secret) public {\n        //ID\n        Product storage product = stores[productIdInStore[_productId]][_productId];\n        //\n        require(now > product.auctionEndTime,\"\");\n        // \n        bytes32 sealedBid = keccak256(_amount,_secret);\n        //\n        Bid memory bidInfo = product.bids[msg.sender][sealedBid];\n        //0x4333  uint160\n        require(bidInfo.bidder > 0,\"\"); \n        //\n        require(bidInfo.revealed == false,\"\");\n        // \n        uint refund;\n        uint amount = stringToUint(_amount);\n        // bidInfo.value  mask bid\n        if (bidInfo.value < amount) { //bidInfo.value< \n            refund = bidInfo.value;\n        }else { //\n            if (address(product.highestBidder) == 0) { //0\n                //\n                product.highestBidder = msg.sender;\n                // \n                product.highestBid = amount;\n                // \n                product.secondHighestBid = product.startPrice;\n                // bidInfo.value = 20,amount = 12,8\n                refund = bidInfo.value - amount;\n            }else { //\n                // amount = 15 , bidInfo.value = 25,amount > 12 \n                if (amount > product.highestBid) {\n                    //   \n                    product.secondHighestBid = product.highestBid;\n                    // \n                    product.highestBidder.transfer(product.highestBid);\n                    // \n                    product.highestBidder = msg.sender;\n                    // 15\n                    product.highestBid = amount;\n                    //  20 - 15 = 5\n                    refund = bidInfo.value - amount;\n                }else if (amount > product.secondHighestBid) {\n                    //\n                    product.secondHighestBid = amount;\n                    //\n                    refund = amount;\n                }else { //\n                    refund = amount;\n                }\n            }\n            if (refund > 0){ //\n                msg.sender.transfer(refund);\n                product.bids[msg.sender][sealedBid].revealed = true;\n            }\n        }\n\n    }\n\n    //\n    //1. \n    function highestBidderInfo (uint _productId)public view returns (address, uint ,uint) {\n        Product memory product = stores[productIdInStore[_productId]][_productId];\n        return (product.highestBidder,product.highestBid,product.secondHighestBid);\n    }    \n    //2. \n    function  totalBids(uint _productId) view public returns (uint) {\n        Product memory product = stores[productIdInStore[_productId]][_productId];\n        return  product.totalBids;\n    }\n    //3. stringuint\n    function stringToUint(string s) pure private returns (uint) {\n        bytes memory b = bytes(s);\n        uint result = 0 ;\n        for (uint i = 0; i < b.length; i++ ){\n            if (b[i] >=48 && b[i] <=57){\n                result = result * 10  + (uint(b[i]) - 48);\n            }\n        }\n        return result;\n    }\n} ",
  "sourcePath": "/Users/brucefeng/Coding/auctionDapp/contracts/AuctionStore.sol",
  "compiler": {
    "name": "solc",
    "version": "0.4.24+commit.e67f0147.Emscripten.clang"
  },
  "schemaVersion": "2.0.1",
  "updatedAt": "2018-10-19T12:58:33.018Z"
}