{
  "contractName": "AuctionStore",
  "abi": [
    {
      "constant": true,
      "inputs": [],
      "name": "productIndex",
      "outputs": [
        {
          "name": "",
          "type": "uint256"
        }
      ],
      "payable": false,
      "stateMutability": "view",
      "type": "function"
    },
    {
      "inputs": [],
      "payable": false,
      "stateMutability": "nonpayable",
      "type": "constructor"
    },
    {
      "constant": false,
      "inputs": [
        {
          "name": "_name",
          "type": "string"
        },
        {
          "name": "_category",
          "type": "string"
        },
        {
          "name": "_imageLink",
          "type": "string"
        },
        {
          "name": "_descLink",
          "type": "string"
        },
        {
          "name": "_auctionStartTime",
          "type": "uint256"
        },
        {
          "name": "_auctionEndTime",
          "type": "uint256"
        },
        {
          "name": "_startPrice",
          "type": "uint256"
        },
        {
          "name": "_productCondition",
          "type": "uint256"
        }
      ],
      "name": "addProductToStore",
      "outputs": [],
      "payable": false,
      "stateMutability": "nonpayable",
      "type": "function"
    },
    {
      "constant": true,
      "inputs": [
        {
          "name": "_productId",
          "type": "uint256"
        }
      ],
      "name": "getProduct",
      "outputs": [
        {
          "name": "",
          "type": "uint256"
        },
        {
          "name": "",
          "type": "string"
        },
        {
          "name": "",
          "type": "string"
        },
        {
          "name": "",
          "type": "string"
        },
        {
          "name": "",
          "type": "string"
        },
        {
          "name": "",
          "type": "uint256"
        },
        {
          "name": "",
          "type": "uint256"
        },
        {
          "name": "",
          "type": "uint256"
        },
        {
          "name": "",
          "type": "uint8"
        },
        {
          "name": "",
          "type": "uint8"
        }
      ],
      "payable": false,
      "stateMutability": "view",
      "type": "function"
    }
  ],
  "bytecode": "0x608060405234801561001057600080fd5b5060008081905550610d77806100276000396000f300608060405260043610610057576000357c0100000000000000000000000000000000000000000000000000000000900463ffffffff168063a508b9551461005c578063b9db15b4146101bf578063c897d5a6146103ef575b600080fd5b34801561006857600080fd5b506101bd600480360381019080803590602001908201803590602001908080601f0160208091040260200160405190810160405280939291908181526020018383808284378201915050505050509192919290803590602001908201803590602001908080601f0160208091040260200160405190810160405280939291908181526020018383808284378201915050505050509192919290803590602001908201803590602001908080601f0160208091040260200160405190810160405280939291908181526020018383808284378201915050505050509192919290803590602001908201803590602001908080601f01602080910402602001604051908101604052809392919081815260200183838082843782019150505050505091929192908035906020019092919080359060200190929190803590602001909291908035906020019092919050505061041a565b005b3480156101cb57600080fd5b506101ea6004803603810190808035906020019092919050505061077a565b604051808b8152602001806020018060200180602001806020018a815260200189815260200188815260200187600281111561022257fe5b60ff16815260200186600181111561023657fe5b60ff16815260200185810385528e818151815260200191508051906020019080838360005b8381101561027657808201518184015260208101905061025b565b50505050905090810190601f1680156102a35780820380516001836020036101000a031916815260200191505b5085810384528d818151815260200191508051906020019080838360005b838110156102dc5780820151818401526020810190506102c1565b50505050905090810190601f1680156103095780820380516001836020036101000a031916815260200191505b5085810383528c818151815260200191508051906020019080838360005b83811015610342578082015181840152602081019050610327565b50505050905090810190601f16801561036f5780820380516001836020036101000a031916815260200191505b5085810382528b818151815260200191508051906020019080838360005b838110156103a857808201518184015260208101905061038d565b50505050905090810190601f1680156103d55780820380516001836020036101000a031916815260200191505b509e50505050505050505050505050505060405180910390f35b3480156103fb57600080fd5b50610404610c04565b6040518082815260200191505060405180910390f35b610422610c0a565b83851015156104bf576040517f08c379a00000000000000000000000000000000000000000000000000000000081526004018080602001828103825260248152602001807fe5bc80e5a78be697b6e997b4e4b88de883bde6999ae4ba8ee7bb93e69d9fe69781526020017fb6e997b40000000000000000000000000000000000000000000000000000000081525060400191505060405180910390fd5b600160008082825401925050819055506101c06040519081016040528060005481526020018a8152602001898152602001888152602001878152602001868152602001858152602001848152602001600073ffffffffffffffffffffffffffffffffffffffff1681526020016000815260200160008152602001600081526020016000600281111561054d57fe5b815260200183600181111561055e57fe5b600181111561056957fe5b815250905080600260003373ffffffffffffffffffffffffffffffffffffffff1673ffffffffffffffffffffffffffffffffffffffff1681526020019081526020016000206000805481526020019081526020016000206000820151816000015560208201518160010190805190602001906105e6929190610ca6565b506040820151816002019080519060200190610603929190610ca6565b506060820151816003019080519060200190610620929190610ca6565b50608082015181600401908051906020019061063d929190610ca6565b5060a0820151816005015560c0820151816006015560e082015181600701556101008201518160080160006101000a81548173ffffffffffffffffffffffffffffffffffffffff021916908373ffffffffffffffffffffffffffffffffffffffff160217905550610120820151816009015561014082015181600a015561016082015181600b015561018082015181600c0160006101000a81548160ff021916908360028111156106ea57fe5b02179055506101a082015181600c0160016101000a81548160ff0219169083600181111561071457fe5b021790555090505033600160008054815260200190815260200160002060006101000a81548173ffffffffffffffffffffffffffffffffffffffff021916908373ffffffffffffffffffffffffffffffffffffffff160217905550505050505050505050565b60006060806060806000806000806000610792610c0a565b60026000600160008f815260200190815260200160002060009054906101000a900473ffffffffffffffffffffffffffffffffffffffff1673ffffffffffffffffffffffffffffffffffffffff1673ffffffffffffffffffffffffffffffffffffffff16815260200190815260200160002060008d81526020019081526020016000206101c0604051908101604052908160008201548152602001600182018054600181600116156101000203166002900480601f0160208091040260200160405190810160405280929190818152602001828054600181600116156101000203166002900480156108c55780601f1061089a576101008083540402835291602001916108c5565b820191906000526020600020905b8154815290600101906020018083116108a857829003601f168201915b50505050508152602001600282018054600181600116156101000203166002900480601f0160208091040260200160405190810160405280929190818152602001828054600181600116156101000203166002900480156109675780601f1061093c57610100808354040283529160200191610967565b820191906000526020600020905b81548152906001019060200180831161094a57829003601f168201915b50505050508152602001600382018054600181600116156101000203166002900480601f016020809104026020016040519081016040528092919081815260200182805460018160011615610100020316600290048015610a095780601f106109de57610100808354040283529160200191610a09565b820191906000526020600020905b8154815290600101906020018083116109ec57829003601f168201915b50505050508152602001600482018054600181600116156101000203166002900480601f016020809104026020016040519081016040528092919081815260200182805460018160011615610100020316600290048015610aab5780601f10610a8057610100808354040283529160200191610aab565b820191906000526020600020905b815481529060010190602001808311610a8e57829003601f168201915b505050505081526020016005820154815260200160068201548152602001600782015481526020016008820160009054906101000a900473ffffffffffffffffffffffffffffffffffffffff1673ffffffffffffffffffffffffffffffffffffffff1673ffffffffffffffffffffffffffffffffffffffff16815260200160098201548152602001600a8201548152602001600b8201548152602001600c820160009054906101000a900460ff166002811115610b6457fe5b6002811115610b6f57fe5b8152602001600c820160019054906101000a900460ff166001811115610b9157fe5b6001811115610b9c57fe5b815250509050806000015181602001518260400151836060015184608001518560a001518660c001518760e00151886101800151896101a001518898508797508696508595509a509a509a509a509a509a509a509a509a509a50509193959799509193959799565b60005481565b6101c0604051908101604052806000815260200160608152602001606081526020016060815260200160608152602001600081526020016000815260200160008152602001600073ffffffffffffffffffffffffffffffffffffffff16815260200160008152602001600081526020016000815260200160006002811115610c8e57fe5b815260200160006001811115610ca057fe5b81525090565b828054600181600116156101000203166002900490600052602060002090601f016020900481019282601f10610ce757805160ff1916838001178555610d15565b82800160010185558215610d15579182015b82811115610d14578251825591602001919060010190610cf9565b5b509050610d229190610d26565b5090565b610d4891905b80821115610d44576000816000905550600101610d2c565b5090565b905600a165627a7a72305820354dfa7a63ea57892d1cbe8af0d337155899b4b5488884e32c0b74b03577293c0029",
  "source": "pragma solidity ^0.4.24;\n//定义合约AuctionStore\ncontract AuctionStore {\n    //定义枚举ProductStatus\n    enum ProductStatus {\n        Open, //拍卖开始\n        Sold, //已售出,交易成功\n        Unsold //为售出，交易未成功\n    }\n    enum ProductCondition {\n        New, //拍卖产品是否为新品\n        Used //拍卖产品是否已经使用过\n    }\n    // 用于统计产品数量，作为ID\n    uint public productIndex; \n    //产品Id与钱包地址的对应关系\n    mapping(uint => address) productIdInStore;\n    // 通过地址查找到对应的产品集合\n    mapping(address => mapping(uint => Product)) stores;\n\n    \n\n    struct Product {\n        uint id;                 //产品id\n        string name;             //产品名称\n        string category ;       //产品分类\n        string imageLink ;       //图片Hash\n        string descLink;        // 图片描述信息的Hash\n        uint auctionStartTime; //开始竞标时间\n        uint auctionEndTime;    //竞标结束时间\n        uint startPrice;       //拍卖价格   \n        address highestBidder ; //出价最高，赢家的钱包地址\n        uint highestBid ;       //赢家得标的价格\n        uint secondHighestBid ; //竞标价格第二名\n        uint totalBids ;        //共计竞标的人数\n        ProductStatus status;    //状态\n        ProductCondition condition ;  //产品新旧标识\n\n    }\n    constructor ()public{\n        productIndex = 0;\n    }\n    //添加产品到商店\n    function addProductToStore(string _name, string _category, string _imageLink, string _descLink, uint _auctionStartTime, uint _auctionEndTime ,uint _startPrice, uint  _productCondition) public  {\n        //开始时间需要小于结束时间\n        require(_auctionStartTime < _auctionEndTime,\"开始时间不能晚于结束时间\");\n        //产品ID自增\n        productIndex += 1;\n        //product对象稍后直接销毁即可\n        Product memory product = Product(productIndex,_name,_category,_imageLink,_descLink,_auctionStartTime,_auctionEndTime,_startPrice,0,0,0,0,ProductStatus.Open,ProductCondition(_productCondition));\n        stores[msg.sender][productIndex] = product;\n        productIdInStore[productIndex] = msg.sender;   \n    }\n    //通过产品ID读取产品信息\n    function getProduct(uint _productId)  public view returns (uint,string, string,string,string,uint ,uint,uint, ProductStatus, ProductCondition)  {\n        Product memory product = stores[productIdInStore[_productId]][_productId];\n        return (product.id, product.name,product.category,product.imageLink,product.descLink,product.auctionStartTime,product.auctionEndTime,product.startPrice,product.status,product.condition);\n    }\n    \n} ",
  "sourcePath": "/Users/brucefeng/Coding/auctionDapp/contracts/AuctionStore.sol",
  "compiler": {
    "name": "solc",
    "version": "0.4.24+commit.e67f0147.Emscripten.clang"
  },
  "schemaVersion": "2.0.1",
  "updatedAt": "2018-10-17T12:04:18.405Z"
}